S00D0000426C696E6B2E7372656327
S11300000C9469000C947B000C947B000C947B0092
S11300100C947B000C947B000C947B000C947B0070
S11300200C947B000C947D000C947B000C947B005E
S11300300C947B000C947B000C947B000C947B0050
S11300400C947B000C947B000C947B000C947B0040
S11300500C947B000C9494000C947B000C947B0017
S11300600C947B000C947B000C947B000C947B0020
S11300700C947B000C947B000C947B000C947B0010
S11300800C947B000C947B000C947B000C947B0000
S11300900C947B000C947B000C947B000C947B00F0
S11300A00C947B000C947B000C947B000C947B00E0
S11300B00C947B0005A84CCDB2D44EB93836A902B5
S11300C00C50B9918688083CA6AAAA2ABE00000052
S11300D0803F11241FBECFEFD8E0DEBFCDBF21E0AB
S11300E0A0E0B1E001C01D92A430B207E1F70E9484
S11300F0AA000C944A040C9400001F920F920FB6AD
S11301000F9211248F939F93809102019091030188
S1130110019690930301809302019F918F910F9018
S11301200FBE0F901F9018951F920F920FB60F924B
S113013011248F939F9380917800909179009093EC
S11301400101809300019F918F910F900FBE0F903A
S11301501F90189578948AB180668AB984B5816AAB
S113016084BD85B5816085BDECE7F0E08081806465
S11301708083EAE7F0E080818F6A808380818064F5
S11301808083E1EBF0E0808181608083E0E7F0E050
S1130190808181608083C0910001D091010111E0D0
S11301A02091000130910101CE0105978217930738
S11301B040F420910001309101010A962817390773
S11301C020F0C0910001D0910101209711F4C1E009
S11301D0D0E0BE0180E090E00E94960220E030E092
S11301E045EF53E40E94290320E030EC4FE754E448
S11301F00E94F5016B017C0120E030E040E053E413
S11302000E9429039B01AC0160E070E080E89FE359
S11302100E94F5014B015C010091B2006091020162
S11302207091030180E090E00E9496022DEB37E389
S113023046E857E30E9429032B013C01602F70E03C
S113024080E090E00E9498022DEB37E346E853E308
S11302500E9429039B01AC01C301B2010E948901E0
S11302602B013C01A701960160E070E080E89FE368
S11302700E94F5019B01AC01C301B2010E94240359
S113028088233CF010920301109202011092B200F4
S113029010E0612F70E080E090E00E949802A501D8
S11302A094010E9429039B01AC01C301B2010E9485
S11302B0240388230CF474CF1F5F2BED3FE049EC3B
S11302C050E4C701B6010E9429039B01AC01C3019C
S11302D0B2010E9429030E9496036B017C019F775F
S11302E020E030E04FE753E40E9429030E946702B4
S11302F0062F20E030E0A901C701B6010E942403C3
S113030088231CF007BD18BC4BCF17BC08BD48CFD1
S11303105058BB27AA270E94A0010C94EA020E940D
S1130320DC0238F00E94E30220F039F49F3F19F414
S113033026F40C94D9020EF4E095E7FB0C94D30256
S1130340E92F0E94FB0258F3BA1762077307840768
S1130350950720F079F4A6F50C941D030EF4E095AE
S11303600B2EBA2FA02D0B01B90190010C01CA016B
S1130370A0011124FF27591B99F0593F50F4503E16
S113038068F11A16F040A22F232F342F4427585F08
S1130390F3CF469537952795A795F0405395C9F720
S11303A07EF41F16BA0B620B730B840BBAF09150D8
S11303B0A1F0FF0FBB1F661F771F881FC2F70EC077
S11303C0BA0F621F731F841F48F48795779567954A
S11303D0B795F7959E3F08F0B0CF9395880F08F036
S11303E09927EE0F9795879508950E9409020C941A
S11303F0EA020E94E30258F00E94DC0240F029F471
S11304005F3F29F00C94D30251110C941E030C94F9
S1130410D9020E94FB0268F39923B1F3552391F3A7
S1130420951B550BBB27AA2762177307840738F05F
S11304309F5F5F4F220F331F441FAA1FA9F335D0BC
S11304400E2E3AF0E0E832D091505040E695001C70
S1130450CAF72BD0FE2F29D0660F771F881FBB1F2A
S1130460261737074807AB07B0E809F0BB0B802D08
S1130470BF01FF2793585F4F3AF09E3F510578F034
S11304800C94D3020C941E035F3FE4F3983ED4F320
S1130490869577956795B795F7959F5FC9F7880F08
S11304A0911D9695879597F90895E1E0660F771F5A
S11304B0881FBB1F621773078407BA0720F0621BEB
S11304C0730B840BBA0BEE1F88F7E09508950E9416
S11304D0030388F09F5798F0B92F9927B751B0F0CC
S11304E0E1F0660F771F881F991F1AF0BA95C9F7B4
S11304F014C0B13091F00E941D03B1E008950C9432
S11305001D03672F782F8827B85F39F0B93FCCF3E4
S1130510869577956795B395D9F73EF49095809530
S1130520709561957F4F8F4F9F4F0895E89409C050
S113053097FB3EF490958095709561957F4F8F4F12
S11305409F4F9923A9F0F92F96E9BB279395F69528
S1130550879577956795B795F111F8CFFAF4BB0FA6
S113056011F460FF1BC06F5F7F4F8F4F9F4F16C00A
S1130570882311F096E911C0772321F09EE8872F94
S1130580762F05C0662371F096E8862F70E060E050
S11305902AF09A95660F771F881FDAF7880F9695C9
S11305A0879597F9089597F99F6780E870E060E070
S11305B008959FEF80EC089500240A9416161706F8
S11305C018060906089500240A9412161306140640
S11305D005060895092E0394000C11F4882352F0A3
S11305E0BB0F40F4BF2B11F460FF04C06F5F7F4F5B
S11305F08F4F9F4F089557FD9058440F551F59F042
S11306005F3F71F04795880F97FB991F61F09F3FFB
S113061079F087950895121613061406551FF2CF24
S11306204695F1DF08C0161617061806991FF1CF74
S113063086957105610508940895E894BB2766279B
S11306407727CB0197F908950E949E0308F48FEF52
S113065008950E943C030C94EA020E94DC0238F0E4
S11306600E94E30220F0952311F00C94D3020C9421
S1130670D90211240C941E030E94FB0270F3959F6F
S1130680C1F3950F50E0551F629FF001729FBB2785
S1130690F00DB11D639FAA27F00DB11DAA1F649F21
S11306A06627B00DA11D661F829F2227B00DA11DD4
S11306B0621F739FB00DA11D621F839FA00D611D5A
S11306C0221F749F3327A00D611D231F849F600D7B
S11306D0211D822F762F6A2F11249F5750409AF0A4
S11306E0F1F088234AF0EE0FFF1FBB1F661F771F30
S11306F0881F91505040A9F79E3F510580F00C94FB
S1130700D3020C941E035F3FE4F3983ED4F3869522
S113071077956795B795F795E7959F5FC1F7FE2B9A
S1130720880F911D9695879597F908959F930E9438
S1130730C4030F9007FCEE5F0C94ED03990F0008BF
S1130740550FAA0BE0E8FEEF16161706E807F9079F
S1130750C0F012161306E407F50798F0621B730B3A
S1130760840B950B39F40A2661F0232B242B252BBB
S113077021F408950A2609F4A140A6958FEF811D5E
S1130780811D08950C94D9020E940303D8F3E894C0
S1130790E0E0BB279F57F0F02AED3FE049EC06C0AC
S11307A0EE0FBB0F661F771F881F28F0B23A62074F
S11307B07307840728F0B25A620B730B840BE3951A
S11307C09A9572F7803830F49A95BB0F661F771F9D
S11307D0881FD2F790480C940304EF93E0FF07C0FE
S11307E0A2EA2AED3FE049EC5FEB0E94A0010E94DF
S11307F0EA020F90039401FC9058E4EBF0E00C94AF
S11308000F049F3F31F0915020F4879577956795B9
S1130810B795880F911D9695879597F908959F939D
S11308208F937F936F93FF93EF939B01AC010E948F
S11308302903EF91FF910E9423042F913F914F913F
S11308405F910C942903DF93CF931F930F93FF922F
S1130850EF92DF927B018C01689406C0DA2EEF01DF
S11308600E943C03FE01E894A591259135914591A0
S11308705591A6F3EF010E94A001FE019701A80182
S1130880DA9469F7DF90EF90FF900F911F91CF9169
S10B0890DF910895F894FFCFF5
S9030000FC
